:100000000C9441000C9469000C9469000C946900F4
:100010000C9469000C9469000C9469000C946900BC
:100020000C9469000C94A1060C9469000C9469006E
:100030000C9469000C9469000C9469000C9469009C
:100040000C9469000C9469000C9469000C9469008C
:100050000C9469000C9469000C9469000C9469007C
:100060000C9469000C94690020545552544C45007E
:10007000000000000000001F1F1F1F1F1F1F4D0753
:100080004E0711241FBECFEFD4E0DEBFCDBF11E07D
:10009000A0E0B1E0E4E9F8E102C005900D92A033E0
:1000A000B107D9F711E0A0E3B1E001C01D92AE366F
:1000B000B107E1F710E0C0E8D0E004C02297FE01EC
:1000C0000E94390CCE37D107C9F70E94CB010C949E
:1000D0003D0C0C940000CF93DF93EC01DB01FA019F
:1000E00040E050E0288139818D919C91119728172B
:1000F000390718F411963C932E9328813981808119
:1001000091818217930710F4318320834F5F5F4FF3
:100110002296129632964530510521F7DF91CF9104
:100120000895A4E1B0E0E7E9F0E00C940C0C9C0128
:10013000FE0131968AE0DF011D928A95E9F7DE0122
:100140001B96E3E1F1E08AE001900D928150E1F726
:100150008901E0E0F0E0D8018D919C916AE070E0C7
:100160000E94B70B9B01E230F1051CF430952195FC
:100170003F4FBFEF2C393B0734F489819A810196B8
:100180009A83898327C08FEF2E3C380734F48B8104
:100190009C8101969C838B831DC0C901C2968536C4
:1001A000910530F48D819E8101969E838D8312C0CE
:1001B000C901C397C19730F48F81988501969887BC
:1001C0008F8308C0243631052CF089859A850196E5
:1001D0009A87898731960E5F1F4FE530F10509F048
:1001E000BACFA0E0B0E060E070E040E050E07E0117
:1001F0000894E11CF11C8E01055F1F4FF701E40F0D
:10020000F51F20813181F801E40FF51F8081918174
:10021000FC012E9FC0012F9F900D3E9F900D112439
:10022000A80FB91F620F731F4E5F5F4F4A30510511
:1002300029F7CD010E94CB0BCB016496E6E00C942C
:10024000280CCF93DF93CCEEDFEFC832D10528F036
:1002500088E290E068ED7FEF04C088ED9FEF68E2F0
:1002600070E00E944E0681E00E94530784E190E016
:100270000E94E0062196CC33D10539F780E090E06A
:1002800060E070E00E944E06DF91CF910895A0E0FB
:10029000B0E0EDE4F1E00C940A0C6C017B018A0102
:1002A000C0E0D0E0F701EC0FFD1F40815181F60165
:1002B000EC0FFD1F20813181241B350BC90163E048
:1002C000880F991F6A95E1F7F801EC0FFD1F608117
:1002D0007181641B750B820F931F0E94CB0BCB01A6
:1002E0006930710514F088E090E0FC0197FF02C0CE
:1002F000E0E0F0E0E65FFE4F80810E944A05229632
:10030000CA30D10579F6CDB7DEB7E8E00C94260CFB
:100310000F931F9300E710E0C80160E00E9474058E
:10032000C801019661E00E947405C801029662E06E
:100330000E947405C801039663E00E947405C80119
:10034000049664E00E947405C801059665E00E9469
:100350007405C801069666E00E9474050E94620456
:100360001F910F91089580ED97E00E9493070E94DE
:10037000880188E690E00E94320580E090E061E02C
:1003800070E00E944F0480E091E00E94430580E10C
:100390000E949E060895AEE1B0E0E1EDF1E00C941C
:1003A000060C0E94B3010E9421018E010F5F1F4FB6
:1003B000C80161E00E94590720E030E0BE016B5E99
:1003C0007F4FAE01455F5F4FF801E20FF31F808161
:1003D0009181FB01E20FF31F91838083FA01E20F09
:1003E000F31F918380832E5F3F4F2A30310561F7E1
:1003F000F1E08F2E912C7E010894E11CF11CEBE0C2
:10040000AE2EB12CAC0EBD1E75E1C72ED12CCC0E7C
:10041000DD1E80E10E945106882379F08091300131
:10042000909131019401281B390B309331012093B5
:10043000300188EC90E00E94E00682E00E945106C4
:10044000882369F080910801909109010A9790939F
:1004500009018093080184E690E00E94E00680E2B2
:100460000E945106882369F080910801909109014A
:100470000A96909309018093080184E690E00E9417
:10048000E006C70161E00E945907C701B501A60156
:100490000E946B00C701B501A6010E9491008C016A
:1004A0003FEF8C3E93076CF480E090E06AE570E0EB
:1004B0000E944E0681E00E94770580E00E947E0542
:1004C00013C0843191053CF48CE390E06CE370E060
:1004D0000E944E0609C08AE590E060E070E00E944C
:1004E0004E0680E00E9477050E946204B8018827CA
:1004F00077FD8095982F0E94200580E090E061E0D4
:1005000070E00E944F04C701B501A6010E94470197
:100510008AE090E00E94E0067CCFCF93DF93BC019D
:100520008230910510F462E070E0A0916C01B0910E
:100530006D01ED01E0E0F0E040E050E021C0888195
:1005400099818617970769F48A819B81309719F002
:100550009383828304C090936D0180936C01FE01AC
:1005600034C06817790738F44115510519F084171C
:10057000950708F4AC01FE018A819B819C01E90189
:100580002097E9F641155105A9F1CA01861B970B81
:10059000049708F4BA01E0E0F0E02AC08D919C9144
:1005A000119784179507F9F46417750781F412966B
:1005B0008D919C911397309719F09383828304C097
:1005C00090936D0180936C01FD0132964CC0CA017D
:1005D000861B970BFD01E80FF91F6193719302973A
:1005E0008D939C9340C0FD01828193819C01D90130
:1005F0001097A1F680916A0190916B01892B41F4CB
:1006000080912C0190912D0190936B0180936A0150
:1006100040912E0150912F014115510541F44DB7E4
:100620005EB780912A0190912B01481B590B2091B4
:100630006A0130916B01CA01821B930B86179707E1
:1006400080F0AB014E5F5F4F8417950750F0420F6B
:10065000531F50936B0140936A01F90161937193A9
:1006600002C0E0E0F0E0CF01DF91CF910895CF9399
:10067000DF93009709F450C0EC0122971B821A8285
:10068000A0916C01B0916D01109709F140E050E02C
:10069000AC17BD0708F1BB83AA83FE0121913191FC
:1006A000E20FF31FAE17BF0779F48D919C9111975C
:1006B000280F391F2E5F3F4F3983288312968D9163
:1006C0009C9113979B838A834115510571F4D093B4
:1006D0006D01C0936C0120C012968D919C9113976F
:1006E000AD01009711F0DC01D3CFFA01D383C283AF
:1006F00021913191E20FF31FCE17DF0769F4888152
:100700009981280F391F2E5F3F4FFA0131832083D3
:100710008A819B8193838283DF91CF91089565B114
:1007200090E0AC0141705070440F551F9C01267041
:10073000307053E0220F331F5A95E1F7422B6D7C46
:10074000462B45B92BB18870907034E0880F991F03
:100750003A95E1F72F77282B2BB95C9A81E090E04E
:10076000FC016F9364E06A95F1F76F913197C9F7D7
:100770005C986F9364E06A95F1F76F910197C9F700
:100780000895A0E0B0E0E7ECF3E00C940B0CDAB0D5
:1007900057985A98289A0E9420077B018C01C1E043
:1007A000D0E05C9ACE016F9364E06A95F1F76F91A7
:1007B0000197C9F789B15C98FE016F9364E06A956F
:1007C000F1F76F913197C9F75C9AFE016F9364E07E
:1007D0006A95F1F76F913197C9F75C9887FF0BC065
:1007E0000E9420076E197F09800B910B6A307105FA
:1007F00081059105B0F2DAB8CDB7DEB7E7E00C9429
:10080000270CCF92DF92EF92FF920F931F93082F46
:10081000162F0E9498040E94C103D4B0C5B0FAB04C
:10082000EBB05A9828988BB1110F110F812B8BB90F
:1008300084B1826384B9579A802F82958F700E9409
:100840008F03802F8F700E948F03FAB8EBB8D4B853
:10085000C5B81F910F91FF90EF90DF90CF90089552
:1008600060E00E9401040895A2E0B0E0EAE3F4E051
:100870000C940E0C182F062F80E8898380EC8A8355
:10088000FE01E60FF11D8181810F0E94300410935B
:100890003301009332012296E4E00C942A0C0E946A
:1008A0003404089581E00E943004EDE1F1E080E23B
:1008B000819391E0E532F907D9F710923301109254
:1008C000320108950E9452040895529A209A549A2F
:1008D00084E190E00E94EF0680E30E94300486E00D
:1008E00090E00E94EF0680E30E94300482E090E0F6
:1008F0000E94EF0680E30E94300482E090E00E94B4
:10090000EF0680E20E94300482E090E00E94EF0651
:1009100088E20E94300488E00E94300481E00E9456
:10092000300486E00E9430048CE00E943004089578
:1009300080913401882329F481E0809334010E945E
:10094000650408956F927F928F929F92AF92BF92AB
:10095000CF92DF92FF920F93DF93CF93CDB7DEB7A5
:100960002A970FB6F894DEBF0FBECDBF5B016C01B6
:100970000AE03E010894611C711CFA2CC601B50105
:100980002AE030E040E050E00E94DE0BC901DA01CD
:100990005C016D0101504301800E911C80E3F80E53
:1009A000C601B5012AE030E040E050E00E94980B1B
:1009B000F61AF401F082A114B104C104D104E9F6DD
:1009C00009C0F601E00FF11D808161E00E94010481
:1009D0000F5F04C06E010894C11CD11C0A3088F35B
:1009E0002A960FB6F894DEBF0FBECDBFCF91DF9130
:1009F0000F91FF90DF90CF90BF90AF909F908F901E
:100A00007F906F900895EF92FF920F931F937B0159
:100A10008C0197FF0CC010950095F094E094E11CB8
:100A2000F11C011D111D8DE261E00E940104C8014D
:100A3000B7010E94A2041F910F91FF90EF900895BB
:100A40000E9403050895CF93DF93EC0104C061E099
:100A50000E9401042196FE0184918823C1F7DF9151
:100A6000CF9108950E9423050895CF93DF93EC0161
:100A700004C0219661E00E94010488818823C9F79F
:100A8000DF91CF9108950E943505089561E00E949D
:100A9000010408950E9446050895EF92FF920F9376
:100AA0001F93CF93DF937C01062F10E0E3E0000F4C
:100AB000111FEA95E1F7C0E0D0E09E01200F822FE0
:100AC00080640E943004F701EC0FFD1FE4918E2F2B
:100AD00061E00E9401042196C830D10571F7CDB7BD
:100AE000DEB7E6E00C94280C0E944D050895519A5B
:100AF000882311F459980895599A0895579A88238C
:100B000011F05F9A08955F980895282F883068F44F
:100B100081E090E002C0880F991F2A95E2F7282F04
:100B2000AAE2B0E0EBE2F0E029C08E3080F430E0E1
:100B30002850304081E090E002C0880F991F2A952C
:100B4000E2F7282FA4E2B0E0E5E2F0E017C085313B
:100B500030F020E0A0E0B0E0E0E0F0E00FC030E0F6
:100B60002E50304081E090E002C0880F991F2A95F6
:100B7000E2F7282FA7E2B0E0E8E2F0E06F3F19F4D7
:100B80008081822709C0662319F08081822B04C0EE
:100B90009081822F8095892380838C91822B8C93E6
:100BA0000895E0EBF0E083EF8083808184BDE1EB8A
:100BB000F0E082E08083808185BDE4EBF0E010828C
:100BC0008081E3EBF0E08083808188BD88B587BDBC
:100BD00086E060E00E94850585E060E00E94850572
:100BE0008BE060E00E94850583E060E00E9485055F
:100BF000089580913501882329F481E0809335019F
:100C00000E94D1050895CF93DF93EC010E94F9056E
:100C1000D7FD02C020E004C0D095C195DF4F21E090
:100C2000CE01CF3FD10519F014F08FEF90E02223D1
:100C300019F018BC87BD02C088BD17BCDF91CF91E9
:100C40000895CF93DF93EC010E94F905D7FD02C010
:100C500020E004C0D095C195DF4F21E0CE01CF3F09
:100C6000D10519F014F08FEF90E0222329F01092B3
:100C7000B4008093B30004C08093B4001092B3001A
:100C8000DF91CF9108950F931F938B010E9403066C
:100C9000C8010E9421061F910F9108950E944306EA
:100CA0000895282F80913601882391F481E0809364
:100CB000360184B18D7C84B985B1826385B981E0C8
:100CC00090E06F9364E06A95F1F76F910197C9F72F
:100CD00083B18095822308951F93CF93DF93182FBC
:100CE00080913601882391F481E08093360184B1AC
:100CF0008D7C84B985B1826385B981E090E06F9382
:100D000064E06A95F1F76F910197C9F7C12FD0E0C0
:100D100083B190E08C239D23892BD1F38AE090E06E
:100D20000E94EF0683B190E08C239D23892B81F3F1
:100D300083B18123DF91CF911F9108950E946C06AA
:100D400008951F920F920FB60F9211242F933F9385
:100D50004F938F939F93AF93BF9320913B0130911B
:100D60003C01C90180509C4F90933C0180933B0112
:100D700080519742C8F08091370190913801A0913D
:100D80003901B0913A010196A11DB11D809337013F
:100D900090933801A0933901B0933A012051334226
:100DA00030933C0120933B01BF91AF919F918F9174
:100DB0004F913F912F910F900FBE0F901F9018955C
:100DC00028EE33E009C0F9016F9364E06A95F1F70A
:100DD0006F913197C9F701970097A9F7089528EE09
:100DE00033E009C0F9016F9364E06A95F1F76F9100
:100DF0003197C9F701970097A9F70895A0E7B0E0E8
:100E00008C918E7F8C93E0EBF0E080818360808317
:100E1000E1EBF0E08081807F80838081826080834D
:100E2000B89A8C9181608C937894089580913D015B
:100E3000882329F481E080933D010E94FE060895F5
:100E40000E941607E0E7F0E080818E7F808320918A
:100E50003701309138014091390150913A01808138
:100E600081608083B901CA0108950E941607E0E7F6
:100E7000F0E080818E7F80831092370110923801DC
:100E80001092390110923A0110923C0110923B01EC
:100E9000B89A808181608083089508958EE391E0FF
:100EA0000E94560A0895682F8EE391E00E94760B07
:100EB00008959C01462F8EE391E0B9010E94B70985
:100EC00008950F93DF93CF9300D000D00F92CDB74A
:100ED000DEB79C01962FDE011196E5E2F1E085E098
:100EE00001900D928150E1F7BE016F5F7F4F992312
:100EF00029F08EE391E045E00FEF04C08EE391E02E
:100F000045E003E10E9401088EE391E00E94E907B9
:100F10000E9435070F900F900F900F900F90CF9178
:100F2000DF910F91089560E00E9461070895FC0130
:100F30001182108213821282158214821782168205
:100F4000613118F080E1808701C06087208B4830D4
:100F500078F481E090E002C0880F991F4A95E2F78B
:100F600081878BE290E0938782878AE290E029C0B4
:100F70004E3098F4242F30E02850304081E090E04B
:100F800002C0880F991F2A95E2F7818785E290E0D9
:100F90009387828784E290E014C04431A8F4242F20
:100FA00030E02E50304081E090E002C0880F991F61
:100FB0002A95E2F7818788E290E09387828787E22B
:100FC00090E0958784870895158614861386128687
:100FD0000895DC011C96ED91FC911D97309781F0EE
:100FE000808119969C911997892B80831A96ED918F
:100FF000FC911B97908119968C9180958923808311
:101000000895A0E0B0E0E7E0F8E00C940A0CEC01F1
:101010006B017901642F402F20E00E94970719A6E9
:101020001AA61BA6FF86EE8630E041E050E096E26D
:10103000E92EF12C03E210E069E270E055C0A32F25
:10104000B0E0F601EA0FFB1F80818830B8F4FA01A6
:1010500002C0EE0FFF1F8A95E2F7CF01FE01EA0FF3
:10106000FB1F818B2BA5282B2BA7AA0FBB1FAC0F17
:10107000BD1F5A967C936E93599735C08E30C8F435
:1010800090E00897FA0102C0EE0FFF1F8A95E2F781
:10109000CF01FE01EA0FFB1F818B29A5282B29A771
:1010A000AA0FBB1FAC0FBD1F5A961C930E935997E6
:1010B0001AC08431C0F490E00E97FA0102C0EE0F1E
:1010C000FF1F8A95E2F7CF01FE01EA0FFB1F818B1C
:1010D0002AA5282B2AA7AA0FBB1FAC0FBD1F5A9603
:1010E000FC92EE9259973F5F8885381708F4A7CF96
:1010F000CDB7DEB7E8E00C94260CA0E0B0E0E3E862
:10110000F8E00C94060CEC015B0149A5AAA58BA4A0
:1011100090E009C0E92FF0E0EE0FFF1FEA0DFB1D84
:10112000118210829F5F88859817A0F384B139A53A
:10113000832B84B987B12AA5822B87B98AB19BA555
:10114000892B8AB985B1832B85B988B1822B88B95F
:101150008BB1892B8BB9EAE0F0E06F9364E06A957C
:10116000F1F76F913197C9F784B13095832384B932
:1011700087B12095822387B98AB1909589238AB94E
:1011800085B1382335B988B1282328B98BB1982384
:101190009BB99090B000C090B1008091B000836086
:1011A0008093B00082E08093B100D090B20060E004
:1011B00070E03AC05091B2005D19650F711DE3B047
:1011C000E41609F04FC0F6B0FA1609F04BC089B129
:1011D000881509F047C025C0A42FB0E09D01220F5B
:1011E000331F8501020F131FF80180819181892B24
:1011F000A1F42C0F3D1FF901818D928DFC012081FE
:1012000030E0AC0FBD1F51968C9190E0282339231C
:10121000232B19F4F801718360834F5F8885481789
:10122000D8F2D50E4E2DAF2D8E859F856817790784
:1012300008F29092B000C092B10020E00FC0E22FFF
:10124000F0E0EE0FFF1FEA0DFB1D80819181892BDD
:1012500021F48E859F85918380832F5F8885281751
:1012600070F305C0E3B0F6B089B040E0D7CFCDB79A
:10127000DEB7ECE00C94220CA0E0B0E0E2E4F9E090
:101280000C940A0CEC018B01D0907C00E0907A0069
:10129000C7B0F8B080917A0086FDFCCF90E009C01D
:1012A000E92FF0E0EE0FFF1FE00FF11F1182108217
:1012B0009F5F88859817A0F397B18A8D80959823B2
:1012C00097B998B1892388B987E880937A0050E06C
:1012D00024C0FE01E40FF11D818980937C00809180
:1012E0007A00806480937A0080917A0086FDFCCF3A
:1012F000E42FF0E0EE0FFF1FE00FF11F20917800C8
:101300003091790080819181820F931F9183808336
:101310004F5F88854817E8F25F5F898D581710F096
:1013200040E017C040E0F5CFE42FF0E0EE0FFF1FE4
:10133000E00FF11F698D862F90E0959587952081AC
:101340003181820F931F70E00E94B70B718360831D
:101350004F5F8885481740F3D0927C00E0927A0076
:10136000F8B8C7B8CDB7DEB7E8E00C94260CA0E11A
:10137000B0E0EDEBF9E00C94090C8C017B01D42E6C
:10138000842F81508230B0F4D8011C96ED91FC91ED
:101390001D97309779F0808119969C911997892B28
:1013A00080831A96ED91FC911B97808119969C91F0
:1013B000892B8083F8018089882349F5C02EB12EBE
:1013C000C801B7010E947D08D8011C96ED91FC91DF
:1013D0001D97309781F0808119969C911997892BE0
:1013E00080831A96ED91FC911B97908119968C91B0
:1013F000809589238083B2E0DB1609F053C08C2DE1
:101400009B2DBE016F5F7F4F0E947D0827C0C02EBD
:10141000B12EC801B7010E943C09D8011C96ED917C
:10142000FC911D97309781F0808119969C911997B6
:10143000892B80831A96ED91FC911B9790811996C8
:101440008C91809589238083B2E0DB1659F58C2D31
:101450009B2DBE016F5F7F4F0E943C0940E0BE01A3
:101460006F5F7F4F1AC0E42FF0E0EE0FFF1F6701A0
:10147000CE0EDF1EE60FF71FD8011E962D913C9170
:101480001F9780819181281B390BF6018081918102
:10149000820F931F918380834F5FD80118968C91A0
:1014A000481708F36096E9E00C94250CCF93DF937E
:1014B000EC018A819B81009711F00E9437038E8195
:1014C0009F81009711F00E943703888199810097CE
:1014D00011F00E9437038C819D81009711F00E94CA
:1014E0003703DF91CF910895A3E6B0E0EAE7FAE091
:1014F0000C94000C7C015B016A01A2962FAFA297AD
:10150000DA018D919C91892B11F5F701808590E08E
:10151000880F991F0E948D02D6018D939C9300978E
:1015200009F4DFC020E030E00CC0C901880F991F2A
:10153000D601ED91FC91E80FF91F118210822F5F07
:101540003F4FF701808590E02817390774F3D501E4
:101550008D919C91892B89F000E010E03E01089468
:10156000611C711C41E4242E312C2C0E3D1E31E2F5
:10157000432E512C4C0E5D1E28C0F701808590E053
:10158000880F991F0E948D02D5018D939C9300971F
:1015900009F4A7C020E030E011C0C901880F991FED
:1015A000D501ED91FC91E80FF91FD7011E968D91A1
:1015B0009C911F97918380832F5F3F4FF701808518
:1015C00090E0281739074CF3C7CFC701B301A296A3
:1015D0004FADA2970E94B709D70118968C91882E1B
:1015E0009924A101F301A4965FAE4EAEA49760E0EA
:1015F00070E034C00115110559F0A496AEADBFAD31
:10160000A4972D913C91808191812817390758F436
:1016100080819181A496AEADBFADA4978D939C932C
:101620000115110541F0DA012D913C9180819181E4
:101630008217930728F480819181DA018D939C931E
:101640006F5F7F4F4E5F5F4F3296A4968EAD9FAD1A
:10165000A4970296A4969FAF8EAFA49768157905BC
:101660004CF20F5F1F4F0A30110509F0AECF40E07A
:1016700050E020E030E08E010F5B1F4FBE016F5D38
:101680007F4F28C0F801E20FF31F80809180F601A0
:10169000A081B181A20FB31F8D919C9111978815E4
:1016A000990510F48D929C92FB01E20FF31F80804C
:1016B0009180F501A081B181A20FB31F8D919C9102
:1016C00011978816990610F48D929C924F5F5F4F88
:1016D0002E5F3F4FD70118968C9190E0481759071D
:1016E0008CF2CD59DF4FE2E10C941C0C1F93CF9389
:1016F000DF93EC01162F862F8150823040F4AE012B
:101700004E5F5F4FCE01BE0121E00E94740A12308D
:1017100011F0112349F4AE014A5F5F4FCE012496C8
:10172000BE0120E00E94740ADF91CF911F910895BD
:10173000629FD001739FF001829FE00DF11D649FB5
:10174000E00DF11D929FF00D839FF00D749FF00D41
:10175000659FF00D9927729FB00DE11DF91F639FE2
:10176000B00DE11DF91FBD01CF0111240895AA1B81
:10177000BB1B51E107C0AA1FBB1FA617B70710F07C
:10178000A61BB70B881F991F5A95A9F780959095AE
:10179000BC01CD01089597FB092E07260AD077FDDD
:1017A00004D0E5DF06D000201AF4709561957F4FD4
:1017B0000895F6F7909581959F4F0895A1E21A2E0E
:1017C000AA1BBB1BFD010DC0AA1FBB1FEE1FFF1FE5
:1017D000A217B307E407F50720F0A21BB30BE40B35
:1017E000F50B661F771F881F991F1A9469F760957C
:1017F0007095809590959B01AC01BD01CF01089536
:101800002F923F924F925F926F927F928F929F9210
:10181000AF92BF92CF92DF92EF92FF920F931F93FE
:10182000CF93DF93CDB7DEB7CA1BDB0B0FB6F894AF
:10183000DEBF0FBECDBF09942A88398848885F84EF
:101840006E847D848C849B84AA84B984C884DF8060
:10185000EE80FD800C811B81AA81B981CE0FD11D44
:101860000FB6F894DEBF0FBECDBFED010895EE0FA9
:10187000FF1F0590F491E02D099410E0C0E8D0E03E
:1018800004C0FE010E94390C2296C238D107C9F764
:04189000F894FFCFFA
:101894005072657373204200640020000102030447
:1018A4000506FF38FF9CFF00006400C800202020CC
:1018B40020202020200E0F10111220006E010000A5
:00000001FF
